:020000040800F2
:10000000B804002005010008C9100008070A00080C
:10001000C71000081D09000819160008000000009C
:1000200000000000000000000000000011120008A5
:100030001F0900080000000045110008D113000846
:100040001F0100081F0100081F0100081F01000810
:100050001F0100081F0100081F0100081F01000800
:100060001F0100081F0100081F0100081F010008F0
:100070001F0100081F0100081F0100081F010008E0
:100080001F0100081F0100081F0100081F010008D0
:100090001F0100081F0100081F0100081F010008C0
:1000A0001F0100081F0100081F0100081F010008B0
:1000B0001F0100081F0100081F0100081F010008A0
:1000C0001F0100081F0100081F0100081F01000890
:1000D0001F010008691400081F0100081F01000823
:1000E0001F0100081F0100081F010008DFF810D0E1
:1000F00000F068FB00480047BD240008AFF3008013
:10010000B80400200648804706480047FEE7FEE79F
:10011000FEE7FEE7FEE7FEE7FEE7FEE7FEE7FEE7B7
:1001200019140008ED000008F0B480EA0102D40FB1
:100130004200B2EB410F02D20246084611464A0085
:1001400042D0C30DDDB2C1F3C752AD1A202D35DA4E
:10015000C1F3160141F4000204B15242C5F1200678
:1001600002FA06F12A411044B3EBD05F23D0C4B1A8
:10017000012DA0EBC35009DCF0BC4FF0004202EAB5
:10018000C352DBB200F5000000F007B9400000F1F7
:10019000807000EBC350A0F1807040EAD17049003C
:1001A00009E0490841EAC071A0EBC35000F5000026
:1001B000400800EBC350F0BC00F0E6B861420122F9
:1001C00002EB4101001BF6E7F0BC704781F00041F3
:1001D000AAE780F00040A7E780EA010210B502F02C
:1001E0000043400022D04A001FD0010E01EB1261F3
:1001F000C0F35600C2F3560240F4000042F400027D
:10020000A0FB022000047F39140400D0401C50EAF7
:10021000124001D44000491EC2B20C0604EBD010BB
:10022000401C4008802A02D003E0002010BD20F0CE
:100230000100002900DA0020184310BD30B480EA24
:10024000010202F0004530F0004221F0004013D0DE
:1002500090B1C30DD40DC2F31601C0F31600E41A19
:1002600041F4000140F400027D34914201D3641C4A
:1002700000E04900002C02DA30BC002070474FF447
:1002800000000023914201D3891A034340084FEA3A
:100290004101F7D151B1914202D14FF0004105E047
:1002A00002D24FF0010101E06FF0010103EBC450F5
:1002B000284430BC00F068B8C10F80EAE070084400
:1002C000CA079623002100F068B896230022114641
:1002D00000F063B800F0004230F000400AD0C10DD9
:1002E00001F56071C0F3160042EA0151C2084007EF
:1002F0001143704700200146704730B50B46014658
:1003000000202022012409E021FA02F59D4205D3B4
:1003100003FA02F5491B04FA02F52844151EA2F15E
:100320000102F1DC30BD2DE9F05F05460020924668
:100330009B4688460646814640241BE028464146A7
:100340004746224600F05FFA53465A46C01A91418A
:1003500010D311461846224600F046FA2D1A67EBD4
:1003600001084F4622460120002100F03DFA17EB1C
:1003700000094E41201EA4F10104DFDC484631464D
:100380002A464346BDE8F09F0029A8BF7047401C9D
:10039000490008BF20F00100704710B4B0FA80FC9B
:1003A00000FA0CF050EA010404BF10BC704749B1D8
:1003B000CCF1200421FA04F411FA0CF118BF012148
:1003C00021430843A3EB0C01CB1D4FEA00614FEA28
:1003D000102042BF002010BC704700EBC3501044F7
:1003E0000029A4BF10BC7047401C490008BF20F082
:1003F000010010BC7047F0B4002802DCF0BC002003
:100400007047C0F3C751C0F3160040F40000CA079C
:1004100001D14000491E3F2202EB61050022114636
:100420004FF4000626FA01F31344D418844201D88D
:10043000001B1A464000491C1729F3DD5100814278
:1004400002D24FF0FF3100E0002102EBC550F0BCBA
:10045000FFF79ABF2DE9FE4F804681EA0300C00FE7
:100460000C46009021F0004123F00045B8EB02005B
:10047000A94105D24046214690461C460B460246FD
:1004800023F00040104347D0270DC7F30A00C3F301
:100490000A510290401A019040286BDAC3F313000E
:1004A00040F4801B0098924620B10023D2EB030A4F
:1004B00063EB0B0B01985946C0F14002504600F027
:1004C00093F906460D4650465946019A00F0ABF99D
:1004D00010EB08006141002487EA115284EAE773B7
:1004E0001A4340D0009A62B3019A012A4FEA075298
:1004F00015DC001B61EB02014FF0004202EA0752DB
:10050000CDE90042001C41F5801132462B4600F037
:10051000B7F903B0BDE8F08F40462146F9E7001B6C
:1005200061EB0201001C41F5801300185B412018AB
:10053000A2F5001747EB030140EAD570B6196D41EB
:1005400011E06D084FEA360645EAC0754FEA0752DA
:10055000001B61EB0201001C41F5801149084FEAC4
:1005600030000019514132462B4603B0BDE8F04F30
:1005700000F077B90098012240000023D0EB02027E
:1005800063EBE073009821464FEAE074B8EB00009B
:1005900061EB0401E9E783F000435BE781F0004190
:1005A00058E72DE9FE4F81EA030404F0004421F0EE
:1005B000004100944FF0000B23F0004350EA010487
:1005C0005ED052EA03045BD0C3F30A54C1F30A5568
:1005D0002C44A4F2F3340194A0FB0254C1F31301A0
:1005E00041F48011C3F3130343F4801301FB02446D
:1005F00000FB034E840A970A44EA815447EA835772
:10060000A4FB076802958D0A05FB07854FEA932C2A
:1006100004FB0C542705029D4FEA065847EA16379B
:10062000B5EB08056EEB070C870E920E47EA8117B3
:1006300042EA8312A7FB0201B6EB0B0164EB000454
:100640002B0D43EA0C335E1844EB1C50DA4651463E
:10065000E7FB0201C5F313044FEA0B3343EA1453DB
:100660004FEA0432019C43EA0603A4F10C0402940D
:10067000009CCDE900B400F003F903B0BDE8F08FB1
:1006800000200146F9E72DE9F04D81EA030404F06A
:10069000004B21F0004514464FF0000A23F00041C2
:1006A00050EA050220D054EA01021DD0C5F30A57D2
:1006B0000246C5F31303C1F31300C1F30A5640F415
:1006C000801543F48013A7EB0608101BD64608F2EA
:1006D000FD3873EB050002D308F1010801E0921820
:1006E0005B41B8F1000F03DA00200146BDE8F08D50
:1006F00000204FF48011064684460EE0171B73EB72
:10070000050705D3121B63EB050306434CEA010CF6
:1007100049084FEA300092185B4150EA0107EDD1D9
:1007200052EA030012D082EA040083EA050108437A
:1007300005D0101BAB4106D20122002306E00022A7
:100740004FF0004302E06FF0010253101AEB060075
:100750004CEB085110EB0A0041EB0B01BDE8F04DEA
:1007600000F07FB8C1F30A52C1F3130140F2FF3326
:1007700041F480119A4202DA00200146704740F2AB
:1007800033439A42A2F2334202DC524200F03BB8B9
:1007900000F02AB830B5041E71F1000404DB4FF0FC
:1007A0000044404264EB0101141E73F1000405DBB8
:1007B0001C464FF00043524263EB0403994208BFCA
:1007C000904230BD064C074D06E0E06840F0010362
:1007D00094E8070098471034AC42F6D3FFF78AFC40
:1007E0003828000858280008202A04DB203A00FA9C
:1007F00002F1002070479140C2F1200320FA03F378
:10080000194390407047202A04DB203A21FA02F075
:100810000021704721FA02F3D040C2F1200291403A
:10082000084319467047202A06DBCB17203A41FAC5
:1008300002F043EAE07306E041FA02F3D040C2F16D
:1008400020029140084319467047420005D0C0F38A
:10085000C7525242914201DC0020704700EBC15068
:10086000704710B5141E73F1000408DA401C41F102
:10087000000192185B411A4301D120F0010010BD24
:100880002DE9F04D92469B4611B1B1FA81F202E09A
:10089000B0FA80F220329046FFF7A6FF04460F46DA
:1008A00040EA0A0041EA0B0153465A46084313D076
:1008B000114653EA010019D0C8F140025046FFF733
:1008C000A2FF05460E46504659464246FFF78CFFAA
:1008D000084305D0012004E020463946BDE8F08DEC
:1008E0000020054346EAE0762C4337430A98630527
:1008F000E40AA0EB08000022FD0A44EA47540A304B
:1009000002D500200146E9E7010510196941DDE93A
:10091000084500196941BDE8F04DA2E7FEE77047C0
:1009200010B503464FF47A7402E0204600F004F854
:100930005B1E581CF9D110BD4FF0E0210A6900EB95
:10094000C000C00048610020886107200861086974
:10095000C003FCD5014848610A6170473F19010096
:100960002DE9F0410022CC7804F00F03E40601D514
:100970008C7823430C784FF00F0714F0FF0F4FF0E3
:10098000010C1CD005680CFA02F40E882640A64221
:1009900011D1960007FA06F825EA080503FA06F8C9
:1009A00048EA0505CE78282E02D0482E02D002E073
:1009B000446100E00461521C082AE4D305600A88FF
:1009C000FF2A1ED94568002202F108060CFA06F437
:1009D0000E882640A64210D1960007FA06F825EAAE
:1009E000080503FA06F848EA0505CE78282E00D156
:1009F0004461CE78482E00D10461521C082AE3D30A
:100A00004560BDE8F081FEE770B50B4C0025256020
:100A10000A48016821F070410160016841F04051CD
:100A2000016065600220FFF787FF0120206002203F
:100A3000FFF782FF256070BD98812142000C0140C4
:100A400008B50121082000F07FFBC020ADF80000B0
:100A500014208DF8030003208DF802006946054834
:100A6000FFF77EFF04480121016041600A20FFF783
:100A700057FF08BD000C01409881214270B50B4C16
:100A8000002525600A48016821F070410160016875
:100A900041F040510160012666600220FFF74CFFE3
:100AA00026600220FFF748FF256070BD9881214233
:100AB000000C01402DE9F0478146002416480168EA
:100AC00021F070410160016841F0004101600025A2
:100AD000124E00274FF00108C6F898710220FFF768
:100AE0002BFFC6F898816006040ED6F81C0108B1E9
:100AF000641CE4B20220FFF71FFF6D1CEDB2082D4D
:100B0000EAD3B9F1000F04D0FFF77EFF2046BDE81D
:100B1000F087FFF7B3FFF9E7000C014000802142A6
:100B20002DE9F04105461448016821F0704101604B
:100B3000016841F040510160104E4FF00008C6F8C6
:100B4000988100240127E809C6F89C016806050E73
:100B50000220FFF7F1FEC6F898710220FFF7ECFEC5
:100B6000C6F898810220FFF7E7FE641CE4B2082C67
:100B7000E9D3BDE8F0810000000C01400080214273
:100B800070B50B48016821F070410160016841F0C7
:100B900040510160074C0120606020600420FFF795
:100BA000CBFE002565600420FFF7C6FE256070BD02
:100BB000000C01409881214210B50C48016821F0D9
:100BC00070410160016841F040510160084C002013
:100BD000206060600420FFF7AFFE012020606060AD
:100BE000BDE810400420FFF7A7BE0000000C014044
:100BF0009881214270B500241348016821F07041AA
:100C00000160016841F000410160104D0126C5F806
:100C10009C610120FFF790FEC5F898610120FFF765
:100C20008BFE0AE0641CE4B2FA2C03D9FFF7C4FF80
:100C3000012070BD0120FFF77FFED5F81C010028C0
:100C4000F0D1C5F8980170BD000C01400080214230
:100C50002DE9F0410746884616461D460024FFF759
:100C60008FFF3846FFF75CFFFFF7C4FF20B1FFF7A7
:100C7000A3FF0020BDE8F0814046FFF751FFFFF7DA
:100C8000B9FF18B1FFF798FF0020F3E7FFF778FFEF
:100C90007F1CF8B2FFF744FFFFF7ACFF18B1FFF776
:100CA0008BFF0020E6E7771E0CE0BC4204D0012059
:100CB000FFF700FF285503E00020FFF7FBFE285553
:100CC000641CE4B2B442F0D3FFF776FF2046D1E7CC
:100CD0002DE9F0410746884616461D460024FFF7D9
:100CE0004FFF3846FFF71CFFFFF784FF20B1FFF7E7
:100CF00063FF0020BDE8F0814046FFF711FFFFF7DA
:100D000079FF78B1FFF758FF0020F3E7285DFFF780
:100D100007FFFFF76FFF18B1FFF74EFF0020E9E76D
:100D2000641CE4B2B442F1D3FFF746FF0120E1E7CF
:100D300003490A6802604A684260896881607047B6
:100D4000AC0000201749164BCB614FF07E520A626F
:100D50004FF080404862002008604860CA60086127
:100D600048618A612831CB610F4B0B624FF07F5392
:100D70004B6208604860CA60086148618A61283136
:100D800008604860886009494A680A618A684A615F
:100D9000CA688A6148708870C8610120087070470D
:100DA00017B7D1385C000020CDCC4C3F3400002078
:100DB0002DE9FE4F8246DDF830B00E461546184646
:100DC000734FDFF8D081744C6168FFF7FFF98146FB
:100DD0005846A168FFF7FAF90C90E1680D98FFF703
:100DE000F5F9834639464846FFF7F6F98146394614
:100DF0000C98FFF7F1F9074641465846FFF7ECF922
:100E00000D9094F8008028462946FFF7E5F90290F6
:100E100030463146FFF7E0F98346B8F1000F71D054
:100E200051465046DDF80880FFF7D6F95946FFF7DE
:100E30007BF94146FFF778F901F0E8FC4FF07E5866
:100E40004146FFF7C3F920F000405449884201DAD7
:100E5000012000E0002029F00041414505DA27F09B
:100E60000041414501DA012100E0002190B189B142
:100E70006078401CC0B2607032280FD3322060709E
:100E8000A07808B90120A0700E99E069FFF74CF92D
:100E9000E06103E000206070A070E061A07888B39A
:100EA000E06940452EDD616848468846FFF73CF919
:100EB0008146A16838460191FFF736F90090414616
:100EC0004846FFF783F9364F3946FFF785F9414623
:100ED000FFF72AF980466060DDE90001FFF776F947
:100EE0003946FFF779F90199FFF71EF9A06004462A
:100EF00041464846FFF76AF9814621460098FFF7C8
:100F000065F907462946304601F014F8254D294673
:100F1000FFF762F9044658460299FFF705F901F018
:100F200075FC01468AF0004001F004F82946FFF7FD
:100F300053F905464A4621461B480E9B00F03CF8F3
:100F4000194C503420603A462946A4F128000E9BE3
:100F500000F032F86060DDE90D01FFF73DF9A168AE
:100F6000FFF7E2F8A060114E114D03E03146FFF7A4
:100F70002DF9A060A068A842F8DC0E4D03E03146D0
:100F8000FFF7D2F8A060A068A842F8D8BDE8FE8FAD
:100F90003333B33E9A99193F34000020CDCC4C3DF9
:100FA0000AD7A33CE12E65425C0000200000B44358
:100FB00000003443000034C32DE9FF4F044683B0E2
:100FC0001046D4F804A05146FFF700F9A06001468E
:100FD0000698FFF701F92168FFF7A6F88146D4F8D3
:100FE000188006984146FFF7F7F825698346294699
:100FF000FFF7ECF867693946FFF7E8F8E169FFF7B2
:1010000093F80699FFF7E8F8E168FFF78DF80646D0
:1010100058462946FFF7DDF8054658463946FFF79A
:10102000D8F80746206A0699FFF7D6F84146FFF739
:101030007BF880463046616AFFF776F8834659466A
:101040003046FFF7FBF8019059463846FFF7F6F8AF
:10105000029049460498FFF7B9F88346594601982B
:10106000FFF7BAF84946FFF75FF881462060594616
:101070000298FFF7B1F85146FFF756F86060314625
:101080000198FFF7A9F83146FFF7A3F8E060294679
:101090000198FFF7A1F82946FFF79BF82061314638
:1010A0000298FFF799F83946FFF793F860612946EF
:1010B0000298FFF791F84146FFF78BF8A06107B05F
:1010C0004846BDE8F08FFEE77047000070B50F237B
:1010D000C27801260178002A1ED0144A126802F450
:1010E000E062C2F5E062120AC2F10404D34045781E
:1010F000A54082781A402A43120101F1E02181F8CB
:101100000024007800F01F018E404009800000F1AB
:10111000E020C0F8006170BD01F01F008640480962
:10112000800000F1E020C0F8806170BD0CED00E0AF
:101130000249084302490860704700000000FA05B0
:101140000CED00E070470000054A002903D09169CA
:10115000014391617047916981439161704700003B
:101160000010024010B5264A516801F00C01254BD1
:10117000002927D0042927D0082927D003605168E7
:1011800001F0F0010909204B5C5C0168E14041601D
:10119000546804F4E064240A1C5D21FA04F48460B9
:1011A000546804F46054E40A1B5DD940C16052687D
:1011B00002F44042920B144B1B1F9A5CB1FBF2F1FC
:1011C000016110BD0360DAE70360D8E7516801F4FC
:1011D0007011536803F48033022404EB914133B15E
:1011E00053689B0307D5094B59430160C7E7074B79
:1011F00059430160C3E7034B59430160BFE7000057
:101200000010024000127A001800002000093D0082
:101210007047000070B586B0044601218803FFF7CF
:1012200093FF01210420FFF78FFF18218DF817107D
:101230004FF40071ADF8141003258DF81650204EB0
:1012400005A93046FFF78CFB48218DF817103115A2
:10125000ADF814108DF8165005A93046FFF780FB45
:1012600001940020ADF810000C21ADF80E10ADF87F
:101270000C00ADF80A00ADF80800124C01A9204698
:1012800000F064F9012240F22551204600F043F9B4
:101290004FF4A060FFF74CFF25218DF800100121CD
:1012A0008DF803108DF801108DF802106846FFF7D5
:1012B0000DFF0121204600F0FBF806B070BD0000D4
:1012C00000080140003801400FB400B599B01BAAD6
:1012D00068461A9900F0A2F9684600F013F819B0B0
:1012E0005DF814FB10B5064C0146204600F090F95D
:1012F0008021204600F0E8F80028F9D010BD000059
:101300000038014070B50546002403E0FFF7EAFF0E
:10131000641CE4B2285D0028F8D170BDAFF30080F2
:101320000CB50022019200922748016841F48031F7
:1013300001604FF4A063016801F40031009101994C
:10134000491C0191009911B901999942F3D10168A1
:10135000890302D50121009100E000920099012942
:1013600030D11A490A6842F010020A600A6822F075
:1013700003020A600A6842F002020A6041684160A2
:1013800041684160416841F480614160416821F4F5
:101390007C114160416841F4E8114160016841F00D
:1013A0008071016001688901FCD5416821F0030169
:1013B0004160416841F0020141604168C1F381012F
:1013C0000229FAD10CBD00000010024000200240AA
:1013D00002480168491C0160704700005400002069
:1013E0000B484FF47A710068B0FBF1F0B0F1807FE8
:1013F0000CD220F07F414FF0E020491E4161054AA8
:10140000F021117000218161072101617047000006
:101410000000002023ED00E010B50F48016841F006
:101420000101016041680D4A1140416001680C4AA8
:1014300011400160016821F480210160416821F4BC
:10144000FE0141604FF41F018160FFF767FF05490E
:101450004FF00060086010BD001002400000FFF86F
:10146000FFFFF6FE08ED00E070B50B4D40F225548D
:101470002146284600F02FF801280CD1284600F01C
:10148000C3F8064A10700120507021462846BDE876
:10149000704000F005B870BD003801402800002001
:1014A00040F66A120A0A01219140C943018070473F
:1014B000002904D0818941F40051818170478189DC
:1014C00021F40051818170470246002012880A42AF
:1014D00000D00120704770B5002440F66A12C1F3B5
:1014E000421301F01F05012606FA05F2012B0CD06C
:1014F000022B0DD0838A1340090A8E4000883040A9
:101500000BB100B10124204670BD83891340F3E77D
:10151000038A1340F0E710B540F66A13C1F3421393
:1015200001F01F040121A140012B07D0022B07D09D
:1015300014303AB102680A43026010BD0C30F8E77B
:101540001030F6E702688A43026010BD30B585B0FE
:1015500004460D46208A4CF6FF710840E988014395
:101560002182A0894EF6F3110840A9882A891143E7
:101570006A8902431143A181A08A4FF6FF410840C6
:10158000A9890143A1826846FFF7ECFD1D4884420A
:1015900001D1039800E00298A189090408D500EB65
:1015A000C00101EB001029684900B0FBF1F007E031
:1015B00000EBC00101EB001029688900B0FBF1F0DD
:1015C0006422B0FBF2F109010B096FF018056B43BF
:1015D00000EB8300A3891D044FF0320307D503EB12
:1015E000C000B0FBF2F000F00700084306E003EB98
:1015F0000010B0FBF2F000F00F000843208105B0AE
:1016000030BD0000003801408088C0F308007047FA
:10161000C1F3080181807047FEE7000037B514462A
:101620000846064B6A46214600F0FCF80446694627
:10163000002000F07AFC20463EBD00002B1F000871
:101640004100080218BF04200A0E18BF40F0010034
:101650004FF07F4232EA010108BF40F0020001284A
:1016600008BF05207047FEF75FBD6FF05E010807F9
:10167000FFF7EBB802E008C8121F08C1002AFAD130
:1016800070477047002001E001C1121F002AFBD102
:1016900070470000014908607047000058000020B2
:1016A0002DE9FF5F82B00021DDE90430020DDDF895
:1016B00040B0034318D044F61050A2F2FF32424328
:1016C0001514119801281FD0A5EB0B00401C5FEAF0
:1016D000000A4FF000064E4FDFF83891B0465046F2
:1016E00015D5CAF1000413E0119801244AA301287A
:1016F00001D16FEA0B010298119AC0E90031C0E9EB
:10170000024206B0BDE8F09FCBF10000DFE70446DF
:101710000021404A491842EB0450CDE9001012E084
:10172000E00707D032463B4640464946FEF739FFC0
:101730008046894632463B4610461946FEF731FF41
:1017400006460F466410002CEAD1DDE90401DDE90C
:101750000023BAF1000F06DAFEF723FF42464B469C
:10176000FEF71FFF05E0FEF78EFF42464B46FEF7F1
:101770008AFF04460E460022284BFFF70BF803D8D9
:101780004FF0FF30014607E00022254B204631464E
:10179000FEF760FEFEF7E6FF102409E0002C0ADBEE
:1017A0000A220023FEF7BFFD039B30321A55641E48
:1017B00050EA0102F2D1641C039AC4F111031444EB
:1017C000119A012A03D0012208430DD10AE00843EF
:1017D00004D000204FF0110B119072E7A3EB0B0522
:1017E0006D1E0DE05B4504DD4FF0000205F10105C3
:1017F00004E003DA4FF00002A5F10105002AECD065
:1018000002981199C0E90231C0E9004579E700006A
:10181000000014400000F03F300000000000F043E2
:101820000000E03F2DE9FF4F95B09A4688460646F6
:101830000025EEE1252877D100242746F94A012129
:10184000039400E0044316F8013F203B01FA03F043
:101850001042F7D130782A2811D06FF02F0330785A
:10186000A0F13002092A16D8039A44F0020402EBD0
:10187000820203EB42021044761C0390EFE758F813
:10188000042B0392002A03DA504244F400540390DC
:1018900044F00204761C30782E2816D116F8010F79
:1018A00044F004042A280DD06FF02F023078A0F104
:1018B0003003092B09D807EB870302EB4303C71852
:1018C000761CF3E758F8047B761C30786C280FD030
:1018D00006DC4C2817D068280DD06A2814D104E003
:1018E000742810D07A280FD10DE044F400140AE0D7
:1018F00044F4801401E044F440147278824202D12E
:1019000004F58014761C761C307866280BD013DC26
:10191000582877D009DC002875D04528F6D046280D
:10192000F4D047281AD193E118E0632835D0642811
:1019300079D0652812D18BE1702873D008DC672834
:10194000F1D069286FD06E280DD06F2806D1ACE099
:1019500073282CD0752874D0782853D05246179904
:1019600090476D1C54E1C4F30250022809D00328AB
:101970000DD0D8F8001004280DD00D6008F104082F
:1019800046E1D8F80010EA17C1E90052F6E7D8F8A6
:1019900000100D80F2E70D70F0E718F8041B8DF8C9
:1019A000001000208DF80100EB46012003E058F8FC
:1019B00004BB4FF0FF3061074FF0000102D40DE08F
:1019C00009F101018946B9420FDA8145F8DB1BF8BC
:1019D00009100029F4D108E009F10101894681428A
:1019E000FADB1BF809100029F6D103985346A0EB47
:1019F000090721463846179A00F080FA284400EB80
:101A0000090507E044E008E10DE01BF8010B524630
:101A100017999047B9F10109F7D253462146384644
:101A2000179AF2E039E00A21C4F302524FF0000B9A
:101A30000091022A06D058F8040BC117032A09D0D6
:101A40000AE023E008F1070020F00702F2E80201B3
:101A5000904605E000B2C117042A01D140B2C11777
:101A6000002906DA0A460021404261EB02012D22DC
:101A700002E0220504D52B228DF80420012203E088
:101A8000E20701D02022F7E7914657E00A2100E063
:101A900010214FF0000B00910BE010214FF0000BD4
:101AA00044F004040827009103E008204FF0000BE5
:101AB0000090C4F30252022A05D058F8040B00210A
:101AC000032A08D008E008F1070020F00702F2E836
:101AD0000201904603E080B2042A00D1C0B24FF068
:101AE000000922072AD53278702A07D0DDF800C015
:101AF0008CF0100C5CEA0B0C05D00EE040228DF847
:101B00000420012208E050EA010306D030238DF8BA
:101B100004308DF8052002229146009B83F00803D3
:101B200053EA0B030AD150EA010201D1620705D53D
:101B300030228DF804204FF001097F1E3278582A98
:101B400004D039A20C920CAA02920BE03BA2F9E756
:101B50005B46009AFEF7E7FB0C9B9B5C029A521EC9
:101B60000292137050EA0102F2D1029804A9081AF5
:101B700000F1200B600702D524F4803400E0012737
:101B80005F4502DDA7EB0B0000E0002000EB0B013E
:101B9000009003984944401A0390E00306D453464A
:101BA0002146179A039800F0A9F90544002706E09A
:101BB00001A85246C05D179990476D1C7F1C4F4588
:101BC000F6DBE0030CD553462146179A039800F044
:101BD00095F9054404E030205246179990476D1C52
:101BE0000099481E00900029F5DC08E0029802994F
:101BF00052460078491C0291179990476D1CBBF121
:101C00000001ABF1010BF1DC5BE100F065F905448B
:101C1000761C307800287FF40DAE19B02846BDE858
:101C2000F08F000009280100303132333435363767
:101C30003839616263646566000000003031323318
:101C400034353637383941424344454600000000B8
:101C5000600700D4062708F1070020F00700F0E82D
:101C60000223804603F0004C5FEA0C0001D097A0ED
:101C700009E0200501D596A005E0E00701D095A078
:101C800001E0AFF24C001390307823F00043652858
:101C90000CD006DC452809D046281DD047287FD126
:101CA0003BE0662818D067287AD136E00021112F52
:101CB00001DB112000E0781CCDE9000104A90CA88B
:101CC000FFF7EEFCDDE90D010C9A4FF0000B07F178
:101CD0000109109200914EE04FF000400097CDE9CD
:101CE000011004A90CA8FFF7DBFCDDE90D020C9B39
:101CF0000F994FF0000B91461093009211B9791C87
:101D000000EB0109B7EB090003D4C0F1FF3B07F179
:101D10000109A9EB0700019042E0012F00DA012739
:101D20000021112F01DD112000E03846CDE900012E
:101D300004A90CA8FFF7B4FCDDE90D010C9A009191
:101D40004FF0000BB946109221070FD4009A4A4574
:101D500003DA914601E0A9F10109B9F1010F05DDAE
:101D6000109AA9F10101515C3029F4D0B84202DA8D
:101D700010F1040F03DA0121CDE9011010E0002871
:101D800003DC8344A9EB000102E0411C494500DD6E
:101D90008946A0EB0B00401C01904FF000400290E0
:101DA000200705D40198484502DB4FF0FF30019031
:101DB00000208DF84B0002980DF14B07B0F1004F59
:101DC00025D002200C902B200D90029800280CDAD0
:101DD000404202902D200D9007E00A210298FEF764
:101DE0008CFA3031029007F8011D0C99481E0C90B6
:101DF0000029F2DC02980028EFD1791E0D980870B6
:101E0000307800F0200040F0450007F8020D11A8DE
:101E1000C01BC01D02901398007800B1012000EB98
:101E20000901019801EBE071029801440398401AFE
:101E3000401E0390E00306D453462146179A0398A8
:101E400000F05CF805441398007818B152461799D1
:101E500090476D1CE00323D553462146179A0398FB
:101E600000F04CF805441BE0BBF1000F07DB0098C5
:101E7000584504DD1098179910F80B0001E01799E8
:101E800030205246904701980BF1010B401E05F19E
:101E90000105019004D12E205246179990476D1CE0
:101EA000B9F10001A9F10109DEDC05E017F8010B29
:101EB0005246179990476D1C0299481E02900029BE
:101EC000F4DC53462146179A03989EE62D00000045
:101ED0002B000000200000002DE9F0410446002501
:101EE0001E461746880404D405E039462020B04732
:101EF0006D1C641EF9D52846BDE8F0812DE9F0413E
:101F0000044600251E469046C80301D5302700E050
:101F10002027880404D505E041463846B0476D1CAB
:101F2000641EF9D52846BDE8F0810A68531C0B6091
:101F3000107070472DE9F0474FF0684202EB400304
:101F40000C460546B3F1654F3CBF02EB4102B2F1CE
:101F5000654F80F0CD8000BFC0F3C752C1F3C753B7
:101F6000D21A1B2A06DD10F0004F14BF874888489C
:101F7000BDE8F08712F11A0F2FDA11F0004F06D0EA
:101F800010F0004F0CBF83488348BDE8F08721461E
:101F90002846FEF753F90646FFF752FB042808BF10
:101FA000FFF763FB2846FFF74BFB05462046FFF78C
:101FB00047FB04463046FFF743FB042D18BF052DB1
:101FC00008D1042C18BF052C04D1002804BF02201E
:101FD000FFF760FB3046BDE8F0874200B2EB410FEF
:101FE00025D910F0004F19BF6C4F6D4E6D4F6E4EDE
:101FF000224685F0004415460A4680F0004110460E
:102000000A1A5200B2F1807F3ED248406749DFF899
:10201000A0A110F0004F18D04FF03F483846FEF70F
:10202000D5F8074651463046FEF7D0F817E011F0D4
:10203000004F04BF00263746E2D010F0004F19BF12
:102040005C4F5D4E5D4F5E4EDAE74FF07C58384690
:10205000FEF76AF8074651463046FEF765F8064631
:1020600041462846FEF7B8F82146FEF75DF882465D
:1020700021464046FEF7B0F82946FEF7AAF8514639
:10208000FEF7DCF8044604E021462846FEF7D6F8C1
:1020900004460146FEF7A0F880464A49FEF79CF840
:1020A0004949FEF741F84146FEF796F84749FEF7E1
:1020B0003BF84146FEF790F84549FEF735F84146B2
:1020C000FEF78AF84349FEF72FF8054641462046B9
:1020D000FEF782F82946FEF77FF83146FEF724F82E
:1020E0002146FEF721F83946BDE8F047FEF71CB857
:1020F0004FF07F42B2EB400F28BFB2EB410F03D24B
:10210000BDE8F047FFF7AFBA40EA01035B0008BF44
:1021100044F0FF410AD0B2EB400F08BFB2EB410FD1
:1021200006D125F0804024F0804105460C4613E797
:10213000B2EB400F12BF5FEA410345F0FF4004F0ED
:1021400000413FF409AFB2EB410F12BF5FEA40021A
:1021500005F0004044F0FF413FF4FEAE4A0092EA31
:1021600040033FF5F9AE002AACBF4FF09F464FF059
:102170003E563146FEF730F8054631462046FEF71A
:102180002BF8044628462146E6E60000DB0FC9BFCF
:10219000DB0FC93FDB0F4940DB0F49C00000C9BF5F
:1021A00022AAFDB90000C93F22AAFD390060ED3E18
:1021B000C30ACE37000049C022AA7DBA00004940B8
:1021C00022AA7D3A2DAD65BD8FB8D53D0FB511BEA4
:1021D00061C84C3EA8AAAABE0A4900280ED0012810
:1021E00009D0022804D003280AD10748086007E074
:1021F0000648086004E00648086001E005480860F9
:10220000086870472C00002000007A3D0000FA3D6D
:1022100000007A3E0000FA3E0A4900280ED001284C
:1022200009D0022804D003280AD10748486007E0F3
:102230000648486004E00648486001E005484860F8
:10224000486870472C0000200000FA3B00007A3CF0
:102250000000FA3C00007A3D10B5752000F012F93C
:102260000446214634A0FFF72FF80121112000F089
:102270001BF96420FEF754FB472C05D035A0FFF76F
:1022800023F84FF0FF3010BD0320FFF7A5FF5020CB
:1022900000F0F8F820F06F0040F0600040F0070117
:1022A000502000F001F90120FFF7B6FF4F2000F0A9
:1022B000E9F820F06F0040F0200040F007014F20C7
:1022C00000F0F2F80221762000F0EEF8042000F091
:1022D000D9F820F0700040F0200020F00F01091D17
:1022E000042000F0E1F80121762000F0DDF80C2058
:1022F00000F0C8F820F0700040F0200020F00F013E
:10230000091D0C2000F0D0F80021762000F0CCF858
:102310004E2000F0B7F820F0200040F00C0040F014
:1023200003014E2000F0C0F80120FEF7F9FA0FA0DB
:10233000FEF7CAFF002010BD49434D34323638380D
:102340002057484F5F414D5F49203D203078253070
:102350003258000049434D343236383820696E69AE
:1023600074204641494C45440000000049434D3427
:102370003236383820696E6974204F4B20284F441C
:10238000523D323030487A2C204C504620656E61E8
:10239000626C6564290000002DE9FF5F04460C2291
:1023A00069461F2000F07AF89DF801009DF80010A2
:1023B00040EA012000B29DF803109DF8022041EA96
:1023C00002210DB29DF805109DF8042041EA02217A
:1023D0000EB29DF807109DF8062041EA02210FB2C7
:1023E0009DF809109DF8082041EA02210FFA81F8B2
:1023F0009DF80B109DF80A2041EA02210FFA81F99D
:10240000FDF75AFFDFF874A0DAF800100391FDF72A
:10241000E3FEDFF86CB05946FDF710FF2060284658
:10242000FDF74AFF0399FDF7D7FE5946FDF706FF72
:1024300060603046FDF740FF0399FDF7CDFE594639
:10244000FDF7FCFEA0603846FDF736FFDAF8041011
:102450000D46FDF7C1FEE0604046FDF72DFF294621
:10246000FDF7BAFE20614846FDF726FF2946FDF735
:10247000B3FE606104B00020BDE8F09F2C00002096
:1024800000007A4408B50022009201466B46012202
:10249000D220FEF7DDFB9DF8000008BD0B4601468B
:1024A000D2B2D220FEF7D4BB13B5014601AB012254
:1024B000D220FEF70DFC00201CBD00008EB04FF4B2
:1024C000E130FEF7A7FEFEF7BBFAFEF789FF60A03A
:1024D000FEF7FAFE6AA0FEF7F7FE72A0FEF7F4FE22
:1024E00079A0FEF7F1FEFFF7B7FE40B14FF4FA74A2
:1024F0002046FEF715FA7FA0FEF7E6FEF8E7FEF7A6
:1025000021FC82A0FEF7E0FE4FF4FA60FEF708FA25
:1025100000250026002700244FF47A7808A8FFF74A
:102520003BFF28460B99FDF7FFFD054630460C9909
:10253000FDF7FAFD064638460D99FDF7F5FD07460D
:102540000520FEF7EDF9641CA4B24445E6D3DFF89C
:10255000E8A128465146FDF771FEDFF8E081C8F892
:10256000000051463046FDF769FE754E3060514619
:102570003846FDF763FE734C206073A0FEF7A4FE9F
:102580002068FDF7A7FE04460D463068FDF7A2FE61
:1025900006460F46D8F80000FDF79CFE02460B46A3
:1025A0006FA0CDE90067CDE90245FEF78DFE76A06C
:1025B000FEF78AFE7EA0FEF787FE00F021F9814635
:1025C0004FF00008DFF818A2DFF818B200F018F991
:1025D0000546A5EB0900FDF778FE5749FDF72EFEED
:1025E0000446A946544500DA54465C4500DD7E4C5D
:1025F00008A8FFF7D1FEDDE90C018DE8130008A85B
:102600000FC8FEF7D5FB05A8FEF792FB08F10108FD
:10261000B8F10A0F17D34FF000080798FDF75AFEDC
:1026200004460D460698FDF755FE06460F460598EA
:10263000FDF750FE02460B466CA0CDE90067CDE9E0
:102640000245FEF741FE0520FEF76AF9BEE70000ED
:102650000D0A3D3D3D3D3D3D3D3D3D3D3D3D3D3D0D
:102660003D3D3D3D3D3D3D3D3D3D3D3D3D3D3D3D9A
:102670003D3D3D3D3D3D3D3D3D3D0D0A00000000E1
:10268000202049434D343236383820494D55204BAF
:10269000616C6D616E2046696C7465722056332ED4
:1026A000300D0A00202057697468204164617074FD
:1026B000697665204269617320436F6D70656E7342
:1026C0006174696F6E0D0A003D3D3D3D3D3D3D3DF0
:1026D0003D3D3D3D3D3D3D3D3D3D3D3D3D3D3D3D2A
:1026E0003D3D3D3D3D3D3D3D3D3D3D3D3D3D3D3D1A
:1026F0000D0A000049434D343236383820696E697E
:1027000074206661696C6564210D0A000D0A5B2AFC
:102710005D204779726F2063616C696272617469D0
:102720006E672E2E2E204B65657020494D55207307
:1027300074696C6C210D0A0000007A443800002096
:102740003C000020400000205B2B5D2043616C6951
:1027500062726174696F6E20646F6E65210D0A008C
:10276000202020204F66667365743A20583D252E40
:1027700033662C20593D252E33662C205A3D252EBC
:1027800033660D0A0D0A00005374617274696E6736
:1027900020494D55207769746820416461707469DF
:1027A000766520426961732E2E2E0D0A000000000E
:1027B0003D3D3D3D3D3D3D3D3D3D3D3D3D3D3D3D49
:1027C0003D3D3D3D3D3D3D3D3D3D3D3D3D3D3D3D39
:1027D0003D3D3D3D3D3D3D3D0D0A0D0A00000000E3
:1027E0006F12833ACDCCCC3D0AD7233C252E3266DE
:1027F0002C252E32662C252E32660D0A0000000094
:1028000001480068704700005400002070B505467C
:10281000FDF7F1FD044620F00040C0F1FF40C00F7D
:1028200008D025F00040C0F1FF40C00F04BF0120D8
:10283000FEF730FF204670BD582800080000002039
:102840005C00000074160008B42800085C0000203A
:102850005C0400008416000800A24A040000000086
:10286000000000000102030406070809020406082C
:102870000000000001020304010203040607080926
:102880000000000023DB793E3333034201000000E7
:102890000000000000000000000000000000000038
:1028A0000000000000000000000000000000000028
:0428B0000000000024
:04000005080000ED02
:00000001FF
